:100000000C9436000C945E000C945E000C945E0020
:100010000C945E000C945E000C945E000C945E00E8
:100020000C945E000C945E000C945E000C945E00D8
:100030000C945E000C945E000C945E000C945E00C8
:100040000C94D8050C945E000C945E000C945E0039
:100050000C945E000C945E000C945E000C945E00A8
:100060000C945E000C945E00BA063D0711241FBE7E
:10007000CFEFD8E0DEBFCDBF11E0A0E0B1E0EAEC09
:10008000F2E102C005900D92A833B107D9F723E041
:10009000A8E3B1E001C01D92AF30B207E1F710E074
:1000A000C5E3D0E004C02197FE010E942508C433B7
:1000B000D107C9F70E9422060C9458090C9400003D
:1000C0003FB7F8948091070390910803A09109032A
:1000D000B0910A0326B5A89B05C02F3F19F00196E1
:1000E000A11DB11D3FBFBA2FA92F982F8827820FBE
:1000F000911DA11DB11DBC01CD0142E0660F771F0E
:10010000881F991F4A95D1F7089577FD15C0DC0126
:100110001296ED91FC9113976E177F076CF4660FA2
:10012000771F660F771FFC01E60FF71F26833783C3
:100130004087518781E0089580E00895660F771F1A
:10014000660F771F860F971FFC0166817781808578
:10015000918508950F931F93FC018AE090E09583A9
:100160008483DF011696CF018E9600E010E020E830
:100170003FE30D931D932D933D93A817B907C9F73E
:100180006B30710528F08AE090E09383828302C08F
:10019000738362831F910F91089577FD0AC0FC015C
:1001A000248135812617370724F07383628381E029
:1001B000089580E008958F929F92AF92BF92CF9260
:1001C000DF92EF92FF920F931F93CF93DF93FC0187
:1001D0002281338144815581EC01C456DE4F2417BE
:1001E0003507C9F577FD37C062177307A4F58B0192
:1001F0007C01B901601B710B61507109CE010E9435
:10020000CD006801FFEFCF1ADF0A8CE2809F50011A
:10021000819FB00C112400E010E0812C912C085D2E
:100220001F4FF70182819381C816D906D4F4F801D3
:10023000EA0DFB1DEE0DFF1D24853585468557858E
:10024000B401CE010E9485008FEF881A980AEFEF63
:10025000CE1ADE0AE4CF8C819D8197FD02C01B82FD
:100260001A82CE01DF91CF911F910F91FF90EF90F5
:10027000DF90CF90BF90AF909F908F9008958F9216
:100280009F92AF92BF92CF92DF92EF92FF920F9325
:100290001F93CF93DF93DC0112962D913C9113971E
:1002A0001496ED91FC911597EC01C456DE4F2E1774
:1002B0003F0709F041C077FD3FC057FD3DC05B01DE
:1002C000A40EB51EA216B306BCF57B018C01B901C4
:1002D0006E197F09CE010E94CD008AE08A9D6001DF
:1002E0008B9DD00C1124CE0CDF1CCC0CDD1CCC0C57
:1002F000DD1C812C912CA12CB12CE4E08E0E911CE4
:10030000D80114962D913C911597C5018E0D9F1D16
:1003100082179307BCF4F401EC0DFD1DE00FF11FF3
:100320002085318542855385B501CE010E94850027
:10033000BFEFAB1ABB0AE1CF8C819D8197FD02C054
:100340001B821A82CE01DF91CF911F910F91FF90F6
:10035000EF90DF90CF90BF90AF909F908F900895D7
:100360008F929F92AF92BF92CF92DF92EF92FF92C5
:100370000F931F93CF93DF93DC0112962D913C9145
:1003800013971496ED91FC911597EC01C456DE4F2E
:100390002E173F0709F041C077FD3FC057FD3DC014
:1003A0006B01C40ED51EC216D306BCF57B018C01B1
:1003B000B9016E197F09CE010E94CD008AE08E9DA1
:1003C000A0018F9D500D1124C40ED51ECC0CDD1C38
:1003D000CC0CDD1C812C912CA12CB12CD8011296B7
:1003E0002D913C911397C5018E0D9F1D8217930788
:1003F000D4F4F401EC0DFD1DE00FF11F24853585CB
:1004000046855785B501CE010E948500BFEFAB1A26
:10041000BB0AE8E28E0E911CE1CF8C819D8197FD95
:1004200002C01B821A82CE01DF91CF911F910F91E2
:10043000FF90EF90DF90CF90BF90AF909F908F9004
:100440000895AF92BF92CF92DF92EF92FF920F93F7
:100450001F93CF93DF938C0104561E4F77FD30C05E
:10046000FC01228133816217730754F57B01EC0193
:1004700064817581C8010E94CD0088E28E9D500183
:100480008F9DB00C1124C12CD12CE12CF12C84E0D7
:10049000C80ED11C8C819D81E816F906C4F4F601C2
:1004A000EA0DFB1DEC0FFD1F20853185428553852C
:1004B000B701C8010E948500FFEFEF1AFF0AE7CFDE
:1004C000F8018481958197FD02C013821282C801D0
:1004D000DF91CF911F910F91FF90EF90DF90CF9020
:1004E000BF90AF900895AF92BF92CF92DF92EF92FC
:1004F000FF920F931F93CF93DF939C0124563E4F9F
:10050000790177FD2EC0FC012481358162177307C4
:1005100044F58B01EC0162817381C7010E94CD001B
:10052000000F111F000F111FA12CB12CC12CD12CB9
:100530008A819B81C816D906DCF4F501E00FF11F12
:10054000EC0FFD1F2485358546855785B601C7010B
:100550000E948500FFEFCF1ADF0A28E2A20EB11C2D
:10056000E7CFF7018481958197FD02C01382128243
:10057000C701DF91CF911F910F91FF90EF90DF9016
:10058000CF90BF90AF900895EF92FF920F931F937B
:10059000CF93DF93DC011296CD91DC911397FC0190
:1005A00060E070E06C177D07FCF4DC011496ED90C0
:1005B000FC90159740E050E020E030E04C5F5F4F4A
:1005C0002E153F056CF48F01040F151FD8011896E6
:1005D0001D921D921D921C921B972F5F3F4FEECFD5
:1005E0006F5F7F4FB896DECFDF91CF911F910F9154
:1005F000FF90EF900895CF92DF92EF92FF92CF930A
:10060000DF93FC0162817381248135816217730756
:1006100061F520E030E0C12CD12C40E8E42E4FE31E
:10062000F42E26173707FCF4A0E0B0E040E050E0DD
:10063000461757079CF42417350729F4C486D58636
:10064000E686F78607C0EC01CA0FDB1F1C861D86F5
:100650001E861F864F5F5F4F1496EACF2F5F3F4F76
:10066000BC968896DECF81E001C080E0DF91CF911B
:10067000FF90EF90DF90CF900895CF92DF92EF92AE
:10068000FF92FC0182819381248135818217930737
:1006900079F577FD2DC06817790754F557FD28C007
:1006A000481759072CF58CE2869FD001879FB00D23
:1006B0001124AE0FBF1F1C96CD90DD90ED90FC90E5
:1006C0001F97849F9001859F300D1124E20FF31F27
:1006D00044855585668577851C964D935D936D930E
:1006E0007C931F97C486D586E686F78681E001C095
:1006F00080E0FF90EF90DF90CF900895CF92DF924F
:10070000EF92FF920F931F93AAE0A69FF001A79F7D
:10071000F00D11244E0F5F1F4D5F5F4F440F551FAB
:10072000440F551F840F951FFC01C080D180E280CB
:10073000F380C701B6019F77A90198010E94AB071A
:1007400087FF03C0C12CD12C7601C701B6011F91D0
:100750000F91FF90EF90DF90CF900895EAE0E69F31
:100760009001E79F300D1124420F531F4D5F5F4FE3
:10077000440F551F440F551F840F951FFC016081C6
:1007800071818281938108950F931F93FC0177FDFE
:1007900022C08281938168177907ECF457FD1BC052
:1007A0008481958148175907B4F4AAE0A69FC00137
:1007B000A79F900D1124480F591F4D5F5F4F440FA5
:1007C000551F440F551FE40FF51F0083118322832B
:1007D000338381E001C080E01F910F9108956F92F3
:1007E0007F928F929F92AF92BF92CF92DF92EF92C1
:1007F000FF920F931F93CF93DF937C01FC018280C4
:1008000093805C01C12CD12C60E070E080E89FE314
:10081000C814D90414F5F7016480758000E010E075
:10082000C0E0D0E00C5F1F4FC615D7057CF4F50182
:10083000E00FF11F608771878287938720E030E0A7
:1008400040E85FE30E943F072196ECCFFFEFCF1A0D
:10085000DF0A28E2A20EB11CDBCFDF91CF911F91FE
:100860000F91FF90EF90DF90CF90BF90AF909F904F
:100870008F907F906F90089508950895089508953A
:100880000895089508950895089508950895089580
:100890000895089508950895089508950895089570
:1008A00008952F923F924F925F926F927F928F9214
:1008B0009F92AF92BF92CF92DF92EF92FF920F93EF
:1008C0001F93CF93DF93CDB7DEB7FC018DB69EB6F5
:1008D00077FD8BC084819581681779070CF085C0FE
:1008E00057FD83C0481759070CF07FC0ADB6BEB6A0
:1008F00022813381C901880F991F880F991FADB7D5
:10090000BEB7A81BB90B0FB6F894BEBF0FBEADBFE4
:100910008DB79EB701961C01660F771F660F771F74
:100920006E0F7F1F7C0100E010E080E090E08217F6
:100930009307A4F46B01C00ED11ED6011C964D90F6
:100940005D906D907C901F97D7014D925D926D9256
:100950007D927D010196085D1F4FE9CF440F551F21
:10096000440F551FE40FF51F80E090E040E050E099
:1009700042175307C4F48F01080F191FD8011C96A2
:10098000CD90DD90ED90FC901F978B01080F191F03
:10099000D8011C96CD92DD92ED92FC921F974F5F8D
:1009A0005F4F8896E5CF40E050E080E090E082170E
:1009B0009307A4F4D101CD90DD90ED90FD901D0141
:1009C000BF01640F751FDB011C96CD92DD92ED9285
:1009D000FC921F970196485D5F4FE9CF0FB6F894E0
:1009E000BEBE0FBEADBE81E001C080E00FB6F89480
:1009F0009EBE0FBE8DBEDF91CF911F910F91FF90D4
:100A0000EF90DF90CF90BF90AF909F908F907F90AE
:100A10006F905F904F903F902F9008952F923F924C
:100A20004F925F926F927F928F929F92AF92BF92FE
:100A3000CF92DF92EF92FF920F931F93CF93DF93AA
:100A4000CDB7DEB7FC018DB69EB677FD90C0828132
:100A50009381681779070CF08AC057FD88C0481742
:100A600059070CF084C0ADB6BEB624813581C901EA
:100A7000880F991F880F991FADB7BEB7A81BB90B78
:100A80000FB6F894BEBF0FBEADBF8DB79EB701962F
:100A90001C0118E2169FC001179F900D1124BF0181
:100AA000680F791F710100E010E080E090E00C5FBA
:100AB0001F4F8217930794F46B01C00ED11ED6010D
:100AC00018964D905D906D907C901B97D7014D923C
:100AD0005D926D927D927D010196E9CF18E2149F9F
:100AE000C001159F900D1124E80FF91F80E090E0E0
:100AF00040E050E0049642175307BCF48F01080F02
:100B0000191FD8011896CD90DD90ED90FC901B97A1
:100B10008B01080F191FD8011896CD92DD92ED9226
:100B2000FC921B974F5F5F4FE5CF40E050E080E0C5
:100B300090E04C5F5F4F8217930794F4D101CD9002
:100B4000DD90ED90FD901D01BF01640F751FDB016D
:100B50001896CD92DD92ED92FC921B970196E9CF0B
:100B60000FB6F894BEBE0FBEADBE81E001C080E0FE
:100B70000FB6F8949EBE0FBE8DBEDF91CF911F9130
:100B80000F91FF90EF90DF90CF90BF90AF909F902C
:100B90008F907F906F905F904F903F902F9008952F
:100BA0000C94C0080C94C0080C94C0080C94C008A5
:100BB0001F920F920FB60F9211242F933F938F9392
:100BC0009F93AF93BF938091030390910403A091EF
:100BD0000503B09106033091020323E0230F2D3764
:100BE00020F40196A11DB11D05C026E8230F029631
:100BF000A11DB11D2093020380930303909304036E
:100C0000A0930503B0930603809107039091080316
:100C1000A0910903B0910A030196A11DB11D809313
:100C2000070390930803A0930903B0930A03BF91AD
:100C3000AF919F918F913F912F910F900FBE0F9089
:100C40001F901895789484B5826084BD84B58160C6
:100C500084BD85B5826085BD85B5816085BD809187
:100C60006E00816080936E001092810080918100FF
:100C700082608093810080918100816080938100F7
:100C8000809180008160809380008091B1008460B9
:100C90008093B1008091B00081608093B00080911A
:100CA0007A00846080937A0080917A0082608093D9
:100CB0007A0080917A00816080937A0080917A0036
:100CC000806880937A001092C10090E0A92E90E095
:100CD000B92E0E9460002B013C0188EEC82E83E0F3
:100CE000D82EE12CF12C0E946000DC01CB0184198C
:100CF0009509A609B709883E9340A105B10558F0AA
:100D000021E0C21AD108E108F10888EE480E83E01C
:100D1000581E611C711CC114D104E104F10419F7BF
:100D2000C0E0D0E080913A0190913B01C817D9070B
:100D3000D4F400E010E080913C0190913D0108174F
:100D400019077CF4E0913801F09139010280F381B8
:100D5000E02DA801BE0188E391E009950F5F1F4FC8
:100D6000EACF2196DFCFA114B10409F4B2CF0E94DB
:100D70000000AFCF8F929F92AF92BF92CF92DF923F
:100D8000EF92FF920F931F93CF93DF93CDB7DEB710
:100D9000AE970FB6F894DEBF0FBECDBF08E311E0EB
:100DA00088E191E0F8019183808386EDC82E82E08E
:100DB000D82EF601118210829AE0A92E91E0B92E68
:100DC000B092D502A092D40228EDE22E22E0F22EBB
:100DD0003AE0832E912CF701918280826AE070E0E4
:100DE00084ED92E00E94AA0085E99FEBA6EDB3E3B3
:100DF000F80180879187A287B3879782868283E0F4
:100E000090E09383828395838483C8010E94EF03DB
:100E1000F8016281738184E190E09E838D831C825E
:100E20001B82BA82A982CE0101960E94AA008B8100
:100E30009C81F601918380838D819E81F70191834E
:100E4000808388E2FE013796AAEDB2E001900D9210
:100E50008A95E1F7AE960FB6F894DEBF0FBECDBF10
:100E6000DF91CF911F910F91FF90EF90DF90CF9086
:100E7000BF90AF909F908F90089508955058BB27D2
:100E8000AA270E9456070C94EB070E94DD0738F052
:100E90000E94E40720F039F49F3F19F426F40C94E3
:100EA000DA070EF4E095E7FB0C94D407E92F0E94D3
:100EB000FC0758F3BA17620773078407950720F0F9
:100EC00079F4A6F50C941E080EF4E0950B2EBA2FBB
:100ED000A02D0B01B90190010C01CA01A001112440
:100EE000FF27591B99F0593F50F4503E68F11A16EC
:100EF000F040A22F232F342F4427585FF3CF46957D
:100F000037952795A795F0405395C9F77EF41F169E
:100F1000BA0B620B730B840BBAF09150A1F0FF0F68
:100F2000BB1F661F771F881FC2F70EC0BA0F621F54
:100F3000731F841F48F4879577956795B795F79544
:100F40009E3F08F0B0CF9395880F08F09927EE0FD9
:100F50009795879508950E94B00708F481E0089559
:100F6000990F0008550FAA0BE0E8FEEF16161706BA
:100F7000E807F907C0F012161306E407F50798F022
:100F8000621B730B840B950B39F40A2661F0232B3B
:100F9000242B252B21F408950A2609F4A140A695B7
:100FA0008FEF811D811D089597F99F6780E870E09C
:100FB00060E008959FEF80EC089500240A941616CF
:100FC000170618060906089500240A941216130637
:100FD000140605060895092E0394000C11F48823C5
:100FE00052F0BB0F40F4BF2B11F460FF04C06F5FE1
:100FF0007F4F8F4F9F4F089557FD9058440F551FB7
:1010000059F05F3F71F04795880F97FB991F61F08A
:101010009F3F79F087950895121613061406551F01
:10102000F2CF4695F1DF08C0161617061806991F6D
:10103000F1CF86957105610508940895E894BB2762
:1010400066277727CB0197F90895EE0FFF1F0590CC
:10105000F491E02D0994CF93DF938230910510F441
:1010600082E090E0E0910D03F0910E0320E030E08B
:10107000C0E0D0E0309711F1408151814817590705
:10108000C0F04817590761F482819381209719F0C5
:101090009B838A832BC090930E0380930D0326C0FD
:1010A0002115310519F04217530718F49A01BE01B2
:1010B000DF01EF010280F381E02DDCCF2115310546
:1010C00009F1281B390B2430310590F412968D91CB
:1010D0009C9113976115710521F0FB019383828325
:1010E00004C090930E0380930D03FD01329644C01B
:1010F000FD01E20FF31F81939193225031092D934B
:101100003C933AC020910B0330910C03232B41F404
:10111000209102013091030130930C0320930B03C3
:1011200020910001309101012115310541F42DB7C5
:101130003EB74091040150910501241B350BE0910D
:101140000B03F0910C03E217F307A0F42E1B3F0BE7
:101150002817390778F0AC014E5F5F4F2417350729
:1011600048F04E0F5F1F50930C0340930B03819385
:10117000919302C0E0E0F0E0CF01DF91CF910895BC
:101180000F931F93CF93DF93009709F48CC0FC015A
:1011900032971382128200910D0310910E030115F4
:1011A000110581F420813181820F931F20910B035F
:1011B00030910C032817390779F5F0930C03E0936D
:1011C0000B0371C0D80140E050E0AE17BF0750F4E8
:1011D00012962D913C911397AD012115310509F11E
:1011E000D901F3CF9D01DA013383228360817181BC
:1011F000860F971F8217930769F4EC0128813981C4
:10120000260F371F2E5F3F4F318320838A819B81BA
:1012100093838283452B29F4F0930E03E0930D030F
:1012200042C01396FC93EE931297ED0149915991A8
:101230009E01240F351FE217F30771F4808191811D
:10124000840F951F029611969C938E9382819381B1
:1012500013969C938E931297E0E0F0E0D8011296DB
:101260008D919C911397009719F0F8018C01F6CF9E
:101270008D919C9198012E5F3F4F820F931F20917B
:101280000B0330910C032817390769F4309729F4C0
:1012900010920E0310920D0302C01382128210935B
:1012A0000C0300930B03DF91CF911F910F910895D1
:1012B00010E0C5E3D0E004C0FE010E94250821969D
:0A12C000C633D107C9F7F894FFCF39
:1012CA0000000F038000000000009E0085004D040E
:1012DA00D205AA0000000000C403AE030E055104A3
:1012EA003D03FB02C40273022102B0013F01DB008D
:0812FA007E034E04D405EF034E
:00000001FF
