:100000000C9436000C945E000C945E000C945E0020
:100010000C945E000C945E000C945E000C945E00E8
:100020000C945E000C945E000C945E000C945E00D8
:100030000C945E000C945E000C945E000C945E00C8
:100040000C94E4060C945E000C9454070C942E0758
:100050000C945E000C945E000C945E000C945E00A8
:100060000C945E000C945E008607C50811241FBE28
:10007000CFEFD8E0DEBFCDBF23E0AAE4B1E001C0FE
:100080001D92AE3BB207E1F711E0A0E0B1E0E4EE73
:10009000F5E102C005900D92AA34B107D9F710E03E
:1000A000C5E3D0E004C02197FE010E94AD09C4332E
:1000B000D107C9F70E9435080C94E50A0C9400009A
:1000C000FC01538D448D252F30E0842F90E0821B5E
:1000D000930B541710F0CF96089501970895FC01E3
:1000E000918D828D981761F0828DDF01A80FB11D6F
:1000F0005D968C91928D9F5F9F73928F90E0089593
:100100008FEF9FEF0895FC01918D828D981731F04C
:10011000828DE80FF11D858D90E008958FEF9FEFA0
:100120000895FC01918D228D892F90E0805C9F4F76
:10013000821B91098F7399270895FC01848DDF013B
:10014000A80FB11DA35ABF4F2C91848D90E001964A
:100150008F739927848FA689B7892C93A089B18939
:100160008C9180648C93938D848D981306C0028843
:10017000F389E02D80818F7D80830895EF92FF9237
:100180000F931F93CF93DF93EC0181E0888F9B8DBA
:100190008C8D981305C0E889F989808185FD24C07C
:1001A000F62E0B8D10E00F5F1F4F0F731127E02EFF
:1001B0008C8DE8120CC00FB607FCFACFE889F989DC
:1001C000808185FFF5CFCE010E949D00F1CF8B8D00
:1001D000FE01E80FF11DE35AFF4FF0820B8FEA8911
:1001E000FB898081806207C0EE89FF896083E8898E
:1001F000F98980818064808381E090E0DF91CF91F4
:100200001F910F91FF90EF900895CF93DF93EC0132
:10021000888D8823C9F0EA89FB89808185FD05C026
:10022000A889B9898C9186FD0FC00FB607FCF5CF60
:10023000808185FFF2CFA889B9898C9185FFEDCFA8
:10024000CE010E949D00E7CFDF91CF91089583E515
:1002500091E00E94910021E0892B09F420E0822F97
:10026000089580E090E0892B29F00E9427018111F8
:100270000C94000008953FB7F89480914F0190913D
:100280005001A0915101B091520126B5A89B05C023
:100290002F3F19F00196A11DB11D3FBFBA2FA92F05
:1002A000982F8827820F911DA11DB11DBC01CD0182
:1002B00042E0660F771F881F991F4A95D1F708956E
:1002C000CF92DF92EF92FF920F931F93CF93DF9322
:1002D0006C017A018B01C0E0D0E0CE15DF0589F01A
:1002E000D8016D918D01D601ED91FC910190F081C5
:1002F000E02DC6010995892B11F47E0102C02196DB
:10030000ECCFC701DF91CF911F910F91FF90EF903C
:10031000DF90CF900895089580E090E0089577FDF4
:1003200015C0DC011296ED91FC9113976E177F07B3
:100330006CF4660F771F660F771FFC01E60FF71F3F
:10034000268337834087518781E0089580E00895B0
:10035000660F771F660F771F860F971FFC01668158
:1003600077818085918508950F931F93FC018AE022
:1003700090E095838483DF011696CF018E9600E08E
:1003800010E020E83FE30D931D932D933D93A817B4
:10039000B907C9F76B30710528F08AE090E09383C4
:1003A000828302C0738362831F910F91089577FD4A
:1003B0000AC0FC01248135812617370724F0738396
:1003C000628381E0089580E008958F929F92AF92BA
:1003D000BF92CF92DF92EF92FF920F931F93CF9332
:1003E000DF93FC012281338144815581EC01C456A5
:1003F000DE4F24173507C9F577FD37C0621773073D
:10040000A4F58B017C01B901601B710B615071096E
:10041000CE010E94D7016801FFEFCF1ADF0A8CE2FC
:10042000809F5001819FB00C112400E010E0812CCE
:10043000912C085D1F4FF70182819381C816D90660
:10044000D4F4F801EA0DFB1DEE0DFF1D2485358562
:1004500046855785B401CE010E948F018FEF881A1F
:10046000980AEFEFCE1ADE0AE4CF8C819D8197FDCA
:1004700002C01B821A82CE01DF91CF911F910F9192
:10048000FF90EF90DF90CF90BF90AF909F908F90B4
:1004900008958F929F92AF92BF92CF92DF92EF9288
:1004A000FF920F931F93CF93DF93DC0112962D9150
:1004B0003C9113971496ED91FC911597EC01C4565D
:1004C000DE4F2E173F0709F041C077FD3FC057FDB3
:1004D0003DC05B01A40EB51EA216B306BCF57B01A0
:1004E0008C01B9016E197F09CE010E94D7018AE003
:1004F0008A9D60018B9DD00C1124CE0CDF1CCC0C8E
:10050000DD1CCC0CDD1C812C912CA12CB12CE4E049
:100510008E0E911CD80114962D913C911597C50112
:100520008E0D9F1D82179307BCF4F401EC0DFD1D89
:10053000E00FF11F2085318542855385B501CE013D
:100540000E948F01BFEFAB1ABB0AE1CF8C819D8166
:1005500097FD02C01B821A82CE01DF91CF911F91BD
:100560000F91FF90EF90DF90CF90BF90AF909F9052
:100570008F9008958F929F92AF92BF92CF92DF9209
:10058000EF92FF920F931F93CF93DF93DC011296AC
:100590002D913C9113971496ED91FC911597EC01D8
:1005A000C456DE4F2E173F0709F041C077FD3FC00C
:1005B00057FD3DC06B01C40ED51EC216D306BCF557
:1005C0007B018C01B9016E197F09CE010E94D70110
:1005D0008AE08E9DA0018F9D500D1124C40ED51E62
:1005E000CC0CDD1CCC0CDD1C812C912CA12CB12C55
:1005F000D80112962D913C911397C5018E0D9F1D28
:1006000082179307D4F4F401EC0DFD1DE00FF11FE8
:100610002485358546855785B501CE010E948F0119
:10062000BFEFAB1ABB0AE8E28E0E911CE1CF8C81C2
:100630009D8197FD02C01B821A82CE01DF91CF916E
:100640001F910F91FF90EF90DF90CF90BF90AF90F0
:100650009F908F900895AF92BF92CF92DF92EF92CA
:10066000FF920F931F93CF93DF938C0104561E4F7D
:1006700077FD30C0FC01228133816217730754F586
:100680007B01EC0164817581C8010E94D70188E279
:100690008E9D50018F9DB00C1124C12CD12CE12CCA
:1006A000F12C84E0C80ED11C8C819D81E816F906DE
:1006B000C4F4F601EA0DFB1DEC0FFD1F208531850A
:1006C00042855385B701C8010E948F01FFEFEF1AE1
:1006D000FF0AE7CFF8018481958197FD02C013825C
:1006E0001282C801DF91CF911F910F91FF90EF907F
:1006F000DF90CF90BF90AF900895AF92BF92CF920E
:10070000DF92EF92FF920F931F93CF93DF939C01A1
:1007100024563E4F790177FD2EC0FC01248135819E
:100720006217730744F58B01EC0162817381C70185
:100730000E94D701000F111F000F111FA12CB12C17
:10074000C12CD12C8A819B81C816D906DCF4F50115
:10075000E00FF11FEC0FFD1F248535854685578579
:10076000B601C7010E948F01FFEFCF1ADF0A28E20E
:10077000A20EB11CE7CFF7018481958197FD02C0DD
:1007800013821282C701DF91CF911F910F91FF90C9
:10079000EF90DF90CF90BF90AF900895EF92FF92CF
:1007A0000F931F93CF93DF93DC011296CD91DC91D1
:1007B0001397FC0160E070E06C177D07FCF4DC012E
:1007C0001496ED90FC90159740E050E020E030E06A
:1007D0004C5F5F4F2E153F056CF48F01040F151F02
:1007E000D80118961D921D921D921C921B972F5F87
:1007F0003F4FEECF6F5F7F4FB896DECFDF91CF9147
:100800001F910F91FF90EF900895CF92DF92EF929A
:10081000FF92CF93DF93FC01628173812481358144
:100820006217730761F520E030E0C12CD12C40E85D
:10083000E42E4FE3F42E26173707FCF4A0E0B0E0D7
:1008400040E050E0461757079CF42417350729F479
:10085000C486D586E686F78607C0EC01CA0FDB1F83
:100860001C861D861E861F864F5F5F4F1496EACF3B
:100870002F5F3F4FBC968896DECF81E001C080E0BD
:10088000DF91CF91FF90EF90DF90CF900895CF92BE
:10089000DF92EF92FF92FC01828193812481358166
:1008A0008217930779F577FD2DC06817790754F5FE
:1008B00057FD28C0481759072CF58CE2869FD001B8
:1008C000879FB00D1124AE0FBF1F1C96CD90DD90F9
:1008D000ED90FC901F97849F9001859F300D11240F
:1008E000E20FF31F44855585668577851C964D93E9
:1008F0005D936D937C931F97C486D586E686F786B5
:1009000081E001C080E0FF90EF90DF90CF900895EC
:10091000CF92DF92EF92FF920F931F93AAE0A69FD0
:10092000F001A79FF00D11244E0F5F1F4D5F5F4F29
:10093000440F551F440F551F840F951FFC01C080A5
:10094000D180E280F380C701B6019F77A9019801A9
:100950000E94C60887FF03C0C12CD12C7601C701B5
:10096000B6011F910F91FF90EF90DF90CF90089507
:10097000EAE0E69F9001E79F300D1124420F531FDC
:100980004D5F5F4F440F551F440F551F840F951F38
:10099000FC01608171818281938108950F931F937F
:1009A000FC0177FD22C08281938168177907ECF4FE
:1009B00057FD1BC08481958148175907B4F4AAE0FC
:1009C000A69FC001A79F900D1124480F591F4D5F8E
:1009D0005F4F440F551F440F551FE40FF51F008351
:1009E00011832283338381E001C080E01F910F9146
:1009F00008956F927F928F929F92AF92BF92CF9203
:100A0000DF92EF92FF920F931F93CF93DF937C01BE
:100A1000FC01828093805C01C12CD12C60E070E0ED
:100A200080E89FE3C814D90414F5F7016480758049
:100A300000E010E0C0E0D0E00C5F1F4FC615D70506
:100A40007CF4F501E00FF11F60877187828793873F
:100A500020E030E040E85FE30E9441092196ECCFBE
:100A6000FFEFCF1ADF0A28E2A20EB11CDBCFDF9125
:100A7000CF911F910F91FF90EF90DF90CF90BF909B
:100A8000AF909F908F907F906F90089508950895F4
:100A9000089508950895089508950895089508956E
:100AA000089508950895089508950895089508955E
:100AB0000895089508950E94E00A2F923F924F9260
:100AC0005F926F927F928F929F92AF92BF92CF92DE
:100AD000DF92EF92FF920F931F93CF93DF93CDB7E7
:100AE000DEB7FC018DB69EB677FD8BC08481958103
:100AF000681779070CF085C057FD83C04817590760
:100B00000CF07FC0ADB6BEB622813381C901880F1B
:100B1000991F880F991FADB7BEB7A81BB90B0FB6A9
:100B2000F894BEBF0FBEADBF8DB79EB701961C0136
:100B3000660F771F660F771F6E0F7F1F7C0100E027
:100B400010E080E090E082179307A4F46B01C00EE0
:100B5000D11ED6011C964D905D906D907C901F9794
:100B6000D7014D925D926D927D927D010196085D57
:100B70001F4FE9CF440F551F440F551FE40FF51FBA
:100B800080E090E040E050E042175307C4F48F014A
:100B9000080F191FD8011C96CD90DD90ED90FC90A8
:100BA0001F978B01080F191FD8011C96CD92DD925B
:100BB000ED92FC921F974F5F5F4F8896E5CF40E024
:100BC00050E080E090E082179307A4F4D101CD902B
:100BD000DD90ED90FD901D01BF01640F751FDB01DD
:100BE0001C96CD92DD92ED92FC921F970196485D86
:100BF0005F4FE9CF0FB6F894BEBE0FBEADBE81E029
:100C000001C080E00FB6F8949EBE0FBE8DBEDF918E
:100C1000CF911F910F91FF90EF90DF90CF90BF90F9
:100C2000AF909F908F907F906F905F904F903F908C
:100C30002F9008952F923F924F925F926F927F92E2
:100C40008F929F92AF92BF92CF92DF92EF92FF92DC
:100C50000F931F93CF93DF93CDB7DEB7FC018DB613
:100C60009EB677FD90C082819381681779070CF05A
:100C70008AC057FD88C0481759070CF084C0ADB62C
:100C8000BEB624813581C901880F991F880F991F2D
:100C9000ADB7BEB7A81BB90B0FB6F894BEBF0FBE59
:100CA000ADBF8DB79EB701961C0118E2169FC0011B
:100CB000179F900D1124BF01680F791F710100E08B
:100CC00010E080E090E00C5F1F4F8217930794F4D0
:100CD0006B01C00ED11ED60118964D905D906D909F
:100CE0007C901B97D7014D925D926D927D927D0114
:100CF0000196E9CF18E2149FC001159F900D1124B1
:100D0000E80FF91F80E090E040E050E004964217C1
:100D10005307BCF48F01080F191FD8011896CD9006
:100D2000DD90ED90FC901B978B01080F191FD801E7
:100D30001896CD92DD92ED92FC921B974F5F5F4F1C
:100D4000E5CF40E050E080E090E04C5F5F4F8217DD
:100D5000930794F4D101CD90DD90ED90FD901D01AD
:100D6000BF01640F751FDB011896CD92DD92ED92E5
:100D7000FC921B970196E9CF0FB6F894BEBE0FBE4A
:100D8000ADBE81E001C080E00FB6F8949EBE0FBEFC
:100D90008DBEDF91CF911F910F91FF90EF90DF906B
:100DA000CF90BF90AF909F908F907F906F905F900B
:100DB0004F903F902F9008950C94480A0C94480A45
:100DC0000C94480A0C94480A1F920F920FB60F9287
:100DD00011242F933F938F939F93AF93BF93809151
:100DE0004B0190914C01A0914D01B0914E01309179
:100DF0004A0123E0230F2D3720F40196A11DB11DD8
:100E000005C026E8230F0296A11DB11D20934A01BB
:100E100080934B0190934C01A0934D01B0934E01F0
:100E200080914F0190915001A0915101B0915201D8
:100E30000196A11DB11D80934F0190935001A09385
:100E40005101B0935201BF91AF919F918F913F910A
:100E50002F910F900FBE0F901F9018951F920F9219
:100E60000FB60F9211242F933F934F935F936F937D
:100E70007F938F939F93AF93BF93EF93FF9383E5FC
:100E800091E00E949D00FF91EF91BF91AF919F91E2
:100E90008F917F916F915F914F913F912F910F9023
:100EA0000FBE0F901F9018951F920F920FB60F92C2
:100EB00011242F938F939F93EF93FF93E0916301FE
:100EC000F09164018081E0916901F0916A0182FDF5
:100ED00012C0908180916C018F5F8F7320916D01A2
:100EE000821751F0E0916C01F0E0ED5AFE4F958FC2
:100EF00080936C0101C08081FF91EF919F918F9150
:100F00002F910F900FBE0F901F9018958F929F9268
:100F1000AF92BF92CF92DF92EF92FF920F931F9307
:100F2000CF93DF93CDB7DEB7AE970FB6F894DEBFA1
:100F30000FBECDBFE3E5F1E01382128288EE93E0AD
:100F4000A0E0B0E084839583A683B7838AE091E034
:100F50009183808385EC90E09587848784EC90E092
:100F60009787868780EC90E0918B808B81EC90E076
:100F7000938B828B82EC90E0958B848B86EC90E057
:100F8000978B868B118E128E138E148E00EF11E0CC
:100F90008AE291E0F801918380838EE8C82E83E095
:100FA000D82EF601118210829CE1A92E91E0B92E73
:100FB000B0928D03A0928C0320E9E22E23E0F22E62
:100FC0003AE0832E912CF701918280826AE070E0F2
:100FD0008CE893E00E94B40185E99FEBA6EDB3E3B2
:100FE000F80180879187A287B3879782868283E002
:100FF00090E09383828395838483C8010E94F904DF
:10100000F8016281738184E190E09E838D831C826C
:101010001B82BA82A982CE0101960E94B4018B8103
:101020009C81F601918380838D819E81F70191835C
:10103000808388E2FE013796A2E9B3E001900D9229
:101040008A95E1F7AE960FB6F894DEBF0FBECDBF1E
:10105000DF91CF911F910F91FF90EF90DF90CF9094
:10106000BF90AF909F908F900895789484B58260E0
:1010700084BD84B5816084BD85B5826085BD85B53C
:10108000816085BD80916E00816080936E001092BA
:101090008100809181008260809381008091810035
:1010A00081608093810080918000816080938000C6
:1010B0008091B10084608093B1008091B000816024
:1010C0008093B00080917A00846080937A00809150
:1010D0007A00826080937A0080917A0081608093A8
:1010E0007A0080917A00806880937A001092C10023
:1010F0000E943B014B015C0188EEC82E83E0D82E94
:10110000E12CF12C0E943B01DC01CB0188199909EB
:10111000AA09BB09883E9340A105B10558F021E01A
:10112000C21AD108E108F10888EE880E83E0981E03
:10113000A11CB11CC114D104E104F10419F7C0E0F1
:10114000D0E08091F2019091F301C817D907D4F44F
:1011500000E010E08091F4019091F5010817190763
:101160007CF4E091F001F091F1010280F381E02D37
:10117000A801BE0180EF91E009950F5F1F4FEACFF4
:101180002196DFCF0E943101B3CF08950E94CB0892
:1011900008F481E00895990F0008550FAA0BE0E8C4
:1011A000FEEF16161706E807F907C0F01216130629
:1011B000E407F50798F0621B730B840B950B39F469
:1011C0000A2661F0232B242B252B21F408950A26CF
:1011D00009F4A140A6958FEF811D811D089597F90F
:1011E0009F6780E870E060E008959FEF80EC0895CD
:1011F00000240A94161617061806090608950024F6
:101200000A9412161306140605060895092E03946F
:10121000000C11F4882352F0BB0F40F4BF2B11F4E3
:1012200060FF04C06F5F7F4F8F4F9F4F089557FD42
:101230009058440F551F59F05F3F71F04795880F44
:1012400097FB991F61F09F3F79F0879508951216DB
:1012500013061406551FF2CF4695F1DF08C0161687
:1012600017061806991FF1CF869571056105089438
:101270000895E894BB2766277727CB0197F908954F
:101280005058BB27AA270E9458090C9406090E94AF
:10129000F80838F00E94FF0820F039F49F3F19F455
:1012A00026F40C94F5080EF4E095E7FB0C94EF0897
:1012B000E92F0E94170958F3BA17620773078407CA
:1012C000950720F079F4A6F50C9439090EF4E09511
:1012D0000B2EBA2FA02D0B01B90190010C01CA01F0
:1012E000A0011124FF27591B99F0593F50F4503E9B
:1012F00068F11A16F040A22F232F342F4427585F8D
:10130000F3CF469537952795A795F0405395C9F7A4
:101310007EF41F16BA0B620B730B840BBAF091505C
:10132000A1F0FF0FBB1F661F771F881FC2F70EC0FB
:10133000BA0F621F731F841F48F4879577956795CE
:10134000B795F7959E3F08F0B0CF9395880F08F0BA
:101350009927EE0F979587950895EE0FFF1F05903B
:10136000F491E02D0994CF93DF938230910510F42E
:1013700082E090E0E091BC03F091BD0320E030E01A
:10138000C0E0D0E0309711F14081518148175907F2
:10139000C0F04817590761F482819381209719F0B2
:1013A0009B838A832BC09093BD038093BC0326C08C
:1013B0002115310519F04217530718F49A01BE019F
:1013C000DF01EF010280F381E02DDCCF2115310533
:1013D00009F1281B390B2430310590F412968D91B8
:1013E0009C9113976115710521F0FB019383828312
:1013F00004C09093BD038093BC03FD01329644C0AA
:10140000FD01E20FF31F81939193225031092D9337
:101410003C933AC02091BA033091BB03232B41F493
:1014200020910201309103013093BB032093BA0352
:1014300020910001309101012115310541F42DB7B2
:101440003EB74091040150910501241B350BE091FA
:10145000BA03F091BB03E217F307A0F42E1B3F0B76
:101460002817390778F0AC014E5F5F4F2417350716
:1014700048F04E0F5F1F5093BB034093BA03819314
:10148000919302C0E0E0F0E0CF01DF91CF910895A9
:101490000F931F93CF93DF93009709F48CC0FC0147
:1014A0003297138212820091BC031091BD03011583
:1014B000110581F420813181820F931F2091BA039D
:1014C0003091BB032817390779F5F093BB03E093FC
:1014D000BA0371C0D80140E050E0AE17BF0750F426
:1014E00012962D913C911397AD012115310509F10B
:1014F000D901F3CF9D01DA013383228360817181A9
:10150000860F971F8217930769F4EC0128813981B0
:10151000260F371F2E5F3F4F318320838A819B81A7
:1015200093838283452B29F4F093BD03E093BC039E
:1015300042C01396FC93EE931297ED014991599195
:101540009E01240F351FE217F30771F4808191810A
:10155000840F951F029611969C938E93828193819E
:1015600013969C938E931297E0E0F0E0D8011296C8
:101570008D919C911397009719F0F8018C01F6CF8B
:101580008D919C9198012E5F3F4F820F931F209168
:10159000BA033091BB032817390769F4309729F44F
:1015A0001092BD031092BC0302C0138212821093EA
:1015B000BB030093BA03DF91CF911F910F91089560
:1015C00081E090E0F8940C94E50A10E0C5E3D0E0E7
:1015D00004C0FE010E94AD092196C633D107C9F7A8
:0415E000F894FFCFAD
:1015E4000000BE03800000000000BE006001600037
:1015F400050191006F00830000000000A8018F0125
:101604005705DE06B40100000000CE04B8041A0633
:101614005D0547040504CE037D032B03BA0249028A
:0A162400E50188045805DC06F9040E
:00000001FF
